:1000000032C2000050C200004EC200004CC20000CC
:100010004AC2000048C2000046C2000044C20000BC
:1000200042C20000AAC60000BDC600001CC70000F6
:100030003AC2000038C2000036C2000034C20000DC
:1000400032C2000030C200002EC200002CC20000EC
:100050002AC2000028C2000026C2000024C20000FC
:1000600022C2000020C200001EC200001CC200000C
:100070001AC2000018C2000016C2000014C200001C
:1000800012C2000010C200000EC200000C9439150C
:100090000AC2000008C2000006C200000C944D16FF
:1000A00002C2000000C20000FEC10000FCC100004E
:1000B000FAC10000F8C10000F6C100000C94550A16
:1000C0000C947E0AF0C10000EEC10000ECC10000FB
:1000D000EAC10000E8C10000E6C10000E4C1000080
:1000E000E2C100006816C316C316C316C316C316B2
:1000F000C316C3166816C316C316C316C316C31693
:10010000C316C3166A16C316C316C316C316C31680
:10011000C316C316C316C316C316C316C316C31617
:10012000C316C3166A16C316C316C316C316C31660
:10013000C316C316C316C316C316C316C316C316F7
:10014000C316C316BF16C316C316C316C316C316EB
:10015000C316C3169E16C316C316C316C316C316FC
:10016000C316C316C316C316C316C316C316C316C7
:10017000C316C3169216C316C316C316C316C316E8
:10018000C316C316B0165465737420393A206269D9
:100190006E0A005465737420383A20466C6F61749F
:1001A0000A005465737420372C20436F707972698C
:1001B0006768743A004D322E2E2E2E2E2E2E2E2EA5
:1001C000004D312E2E2E2E2E2E2E2E2E004C2D3169
:1001D0003A2020202020004D41473A202020202096
:1001E000005465737420362C20414443002E2E2E7B
:1001F0002E2E2E2E2E2E2E2E005465737420352C6E
:1002000020456E636F6465723A00546573742034E0
:100210003A20536572766F3020300A00546573744B
:1002200020333A20536572766F2030203530300A03
:10023000005465737420323A20536572766F203013
:10024000206D61780A004D6F6269526F62205465BB
:100250007374204C696E652034004D6F6269526F73
:10026000622054657374204C696E6520330A004D1A
:100270006F6269526F622054657374204C696E65B9
:1002800020320A004D6F6269526F622054657374A8
:10029000204C696E6520310A0020426C75653A2059
:1002A000200020477265656E3A2000205265643A4E
:1002B00020202000416D6269656E743A00616470AF
:1002C000732E72656164204572726F7220004C5FFC
:1002D00053656E736F722077656E742077726F6EE0
:1002E00067004C6967687453656E736F7220697339
:1002F00020757000616470732E696E697420776573
:100300006E742077726F6E6700616470732E696E11
:10031000697420636F6D706C657465002D2D2D2DD3
:100320002D2D2D2D2D2D2D2D2D2D2D2D2D2D2D2DFD
:1003300000415044533939363020436F6C6F72534B
:10034000656E736F72002D2D2D2D2D2D2D2D2D2DC4
:100350002D2D2D2D2D2D2D2D2D2D00070813141491
:10036000130807001008080808100000407A10F36E
:100370005A00A0724E18090010A5D4E80000E876D3
:1003800048170000E40B54020000CA9A3B0000002A
:10039000E1F505000080969800000040420F000043
:1003A00000A08601000000102700000000E8030004
:1003B0000000006400000000000A000000000001CE
:1003C00000000000002C76D888DC674F0823DFC1CE
:1003D000DFAE59E1B1B796E5E3E453C63AE6519989
:1003E0007696E8E6C28426EB898C9B62ED407C6FB2
:1003F000FCEFBC9C9F40F2BAA56FA5F490055A2A69
:10040000F75C936B6CF9676DC11BFCE0E40D47FE74
:10041000F520E6B500D0ED902E0300943577050069
:1004200080841E080000204E0A000000C80C3333F0
:1004300033330F986E12831141EF8D2114893BE6FF
:100440005516CFFEE6DB18D1844B381BF77C1D9088
:100450001DA4BBE424203284725E228100C9F124F1
:10046000ECA1E53D270011241FBECFEFD1E2DEBF96
:10047000CDBF00E00CBF12E0A0E0B2E0EEEBF3E392
:1004800000E00BBF02C007900D92AA3FB107D9F759
:1004900023E0AAEFB2E001C01D92AB3FB207E1F743
:1004A00016D20C94DD19ACCD282F2F719091FA0241
:1004B000922B90937C0085FF06C0EBE7F0E08081F3
:1004C0008860808305C0EBE7F0E08081877F8083D0
:1004D00085E38A95F1F70000EAE7F0E08081806427
:1004E0008083808184FFFDCFEAE7F0E08081806136
:1004F00080838091780090917900089590E890BF72
:1005000093E090937F0010927E0091E090937D00A5
:10051000813039F018F0823041F00BC01092FA02AD
:100520000BC080E48093FA0207C080E88093FA024F
:1005300003C080EC8093FA028091FA0280937C00E1
:1005400087E980937A0010927B000895882361F1F7
:100550008091030183FF14C08091010390910203F5
:10056000A0910303B09104030197A109B1098093FD
:10057000010390930203A0930303B093040308952F
:100580008091010390910203A0910303B0910403B1
:100590000196A11DB11D8093010390930203A093C6
:1005A0000303B093040308958091030183FF14C0F3
:1005B0008091010390910203A0910303B091040381
:1005C0000196A11DB11D8093010390930203A09396
:1005D0000303B093040308958091010390910203F3
:1005E000A0910303B09104030197A109B10980937D
:1005F000010390930203A0930303B09304030895AF
:10060000882361F18091030182FF14C08091FD0273
:100610009091FE02A091FF02B09100030197A10901
:10062000B1098093FD029093FE02A093FF02B09364
:10063000000308958091FD029091FE02A091FF02B7
:10064000B09100030196A11DB11D8093FD0290930E
:10065000FE02A093FF02B09300030895809103016E
:1006600082FF14C08091FD029091FE02A091FF02D2
:10067000B09100030196A11DB11D8093FD029093DE
:10068000FE02A093FF02B093000308958091FD0243
:100690009091FE02A091FF02B09100030197A10981
:1006A000B1098093FD029093FE02A093FF02B093E4
:1006B00000030895813061F42FB7F894609101032D
:1006C0007091020380910303909104032FBF08955A
:1006D000823061F42FB7F8946091FD027091FE02B0
:1006E0008091FF02909100032FBF089560E070E0B9
:1006F00080E090E80895813039F48FB7F8946093E2
:10070000FC028FBF80E00895823039F48FB7F894EF
:100710006093FB028FBF80E008958FEF08958FB73D
:10072000F8941092FD021092FE021092FF021092B5
:10073000000310920103109202031092030310921F
:1007400004031092FB021092FC028FBF80E0089518
:1007500060E080E080D486E493E0BED481E393E05F
:10076000BBD48CE193E0B8D4E0910002F091010297
:100770001995882341F081D460E080E06CD489E051
:1007800093E0AAD406C060E080E065D484EF92E0F4
:10079000A3D4E0910A02F0910B0280E0199588231E
:1007A00021F082EE92E098D403C08EEC92E094D4D3
:1007B0002FEF89E698E1215080409040E1F700C09A
:1007C000000008955AD460E080E045D4E0914A02E8
:1007D000F0914B0283E193E019958823D9F0E091E1
:1007E0004C02F0914D0281E193E01995882391F03C
:1007F000E0914E02F0914F028FE093E0199588232B
:1008000049F0E0915002F09151028DE093E019958A
:10081000811104C08DEB92E05FD448C060E080E0BD
:100820001AD484EB92E058D44AE065E173E08091F9
:100830001303909114030E945F1785E193E03DD468
:1008400061E080E008D48BEA92E046D44AE065E1BA
:1008500073E080911103909112030E945F1785E16C
:1008600093E02BD462E080E0F6D382EA92E034D4C5
:100870004AE065E173E080910F03909110030E94BC
:100880005F1785E193E019D463E080E0E4D389E960
:1008900092E022D44AE065E173E080910D039091EB
:1008A0000E030E945F1785E193E007D42FEF83EDDD
:1008B00090E3215080409040E1F700C0000008958F
:1008C0000E948C158823E1F30C94B51508958CE0F3
:1008D00014D413D20E94FB14A5D59CD420DF0E940F
:1008E000781581E00BDE78940F2EF1EEAF2EF02D0F
:1008F0006894BB24B4F8DD24D3946894CC24C1F864
:100900008C2C9D2C0F2EFBE5EF2EF3E0FF2EF02D0F
:100910000BE613E0B2D384E892E0DED38FE692E0F8
:10092000DBD38AE592E0D8D386E492E0D5D36D2D6F
:100930008FE091D38AE3A4D3C3DF60E080E08BD360
:1009400081E392E0C9D368EE73E080E04CD568EEB5
:1009500073E08D2D48D568EE73E08C2D44D568EE9C
:1009600073E08D2D9ED468EE73E08C2D9AD468EEE2
:1009700073E084E096D4A4DF6D2D80E06CD38CE12D
:1009800092E0AAD364EF71E080E02DD564EF71E0CE
:100990008D2D29D564EF71E08C2D25D56CE07EEF8F
:1009A0008D2D7FD46CE07EEF8C2D7BD46CE07EEFC0
:1009B00084E077D485DF6C2D80E04DD38AE092E02F
:1009C0008BD360E070E080E00ED560E070E08D2DAC
:1009D0000AD560E070E08C2D06D568EE73E08D2DB1
:1009E00060D46CE07EEF8C2D5CD460E070E084E03D
:1009F00058D466DF42D389EF91E06ED36D2D8C2DF4
:100A00007ADECD2D46C08C2F55DE60933703709370
:100A100038038093390390933A036C2F80E01BD303
:100A20008DEE91E059D36091370370913803809136
:100A3000390390913A032AE045E153E00E943017D0
:100A40006C2F80E008D385E193E037D3C23010F0FB
:100A5000C92D01C0C82D0E942D15DC01CB01449683
:100A6000A11DB11D8093090390930A03A0930B036A
:100A7000B0930C030E942D154090090350900A0377
:100A800060900B0370900C0364157505860597053F
:100A900088F30E94B515882309F4B5CFEED281EE14
:100AA00091E01AD36D2D8C2D26DEEAC081E2FCDCAC
:100AB000EC016D2D80E0CFD287ED91E00DD34AE0BF
:100AC00065E173E0CE010E9426176D2D84E0C3D24C
:100AD00085E193E0F2D20E942D15DC01CB01449612
:100AE000A11DB11D8093050390930603A0930703F6
:100AF000B09308030E942D15409005035090060303
:100B000060900703709008036415750586059705C6
:100B100088F382E2C9DCA82EB92E6C2D80E09BD22E
:100B20008DEC91E0D9D24AE065E173E08A2D9B2DEE
:100B30000E9426176C2D84E08ED285E193E0BDD211
:100B40000E942D15DC01CB014496A11DB11D80939F
:100B5000050390930603A0930703B09308030E9434
:100B60002D15409005035090060360900703709088
:100B70000803641575058605970588F38D2D9ADDA4
:100B800060933703709338038093390390933A034B
:100B90006D2D89E060D281EC91E09ED260913703A7
:100BA000709138038091390390913A032AE045E12E
:100BB00053E00E9430176D2D8BE04DD285E193E01C
:100BC0007CD20E942D15DC01CB014496A11DB11DE4
:100BD0008093050390930603A0930703B093080343
:100BE0000E942D1540900503509006036090070366
:100BF00070900803641575058605970588F38C2D9C
:100C000059DD6093370370933803809339039093D1
:100C10003A036C2D89E01FD285EB91E05DD26091A3
:100C20003703709138038091390390913A032AE099
:100C300045E153E00E9430176C2D8BE00CD285E12A
:100C400093E03BD20E942D15DC01CB014496A11DFF
:100C5000B11D8093050390930603A0930703B093FF
:100C600008030E942D1540900503509006036090E4
:100C7000070370900803641575058605970588F3CA
:100C80000E94B515882309F411CF6A2C7B2C60DDF6
:100C900001C098DD0E94B5158823D9F3EED182EA10
:100CA00091E01AD280E4C7D1E701FE018491CBD153
:100CB0002196C017D107C9F76D2D80E0CCD180E017
:100CC000DFD18D2DDDD1FCDDD8D183E991E004D2D7
:100CD00023E030E048E050E06FED79EE86EF92E4FB
:100CE00053D2EEDDCAD186E891E0F6D164E170E03E
:100CF000862D972D5ED2E4DD0DCE81B18F6081B956
:100D000084B1806984B987B18FEF87B98AB18CEFDC
:100D10008AB96D9880B38F7080BB9D9AE1E0F1E055
:100D2000808180648083E4E0F1E08081807C808346
:100D3000E7E0F1E080818E7F8083EAE0F1E080816E
:100D400080EC808383B180932E03909103018CB15A
:100D5000990F8170892B80932C03E8E6F0E0808165
:100D60008260808380E680932B0380936C00809167
:100D7000060180932A0380E008951F920F920FB618
:100D80000F9211248F939F9383B190912E03909192
:100D90002D0380932E039F918F910F900FBE0F9084
:100DA0001F9018951F920F920FB60F9211240BB639
:100DB0000F922F933F934F935F936F937F938F93F4
:100DC0009F93AF93BF93CF93DF93EF93FF93C09124
:100DD00003018CB1CC0F8170C82BD0912C03809172
:100DE0002B03DC27D82341F1D5FF12C08091B30239
:100DF000882371F08091B4029091B502892B41F063
:100E0000E091B402F091B502C5FB882780F91995ED
:100E1000D6FF12C08091B602882371F08091B7028C
:100E20009091B802892B41F0E091B702F091B8029D
:100E3000C6FB882780F91995C0932C03FF91EF9189
:100E4000DF91CF91BF91AF919F918F917F916F91E2
:100E50005F914F913F912F910F900BBE0F900FBE5E
:100E60000F901F9018951F920F920FB60F9211249A
:100E70008F939F938091060190912A03909129036B
:100E800080932A039F918F910F900FBE0F901F9018
:100E900018955E9A00C05E980895CF93C82F662378
:100EA00011F05C9A01C05C985D98EAE0F1E0808105
:100EB00080648083808180688083529A539A5B9893
:100EC0005A98EBE0F1E080818F77808380818F7B7F
:100ED0008083CC230CF45B9AC6FD5A9AC5FF05C0EB
:100EE000EBE0F1E0808180688083C4FF05C0EBE027
:100EF000F1E0808180648083CCDF5B985A98EBE0DE
:100F0000F1E080818F77808380818F7B8083C3FD38
:100F10005B9AC2FD5A9AC1FF05C0EBE0F1E0808107
:100F200080688083C0FF05C0EBE0F1E080818064D1
:100F30008083AFDFEBE0F1E080818064808380819B
:100F4000806880835A9A5B9ACF9108955C985D98E7
:100F5000EAE0F1E0908190649083908190689083C2
:100F6000529A539A5B985A98EBE0F1E090819F7700
:100F7000908390819F7B908388230CF45B9A86FDFD
:100F80005A9A85FF05C0EBE0F1E09081906890836C
:100F900084FF05C0EBE0F1E080818064808379DF2D
:100FA000EBE0F1E0808180648083808180688083D1
:100FB0005A9A5B9A0895882311F05C9A01C05C9854
:100FC0005D9AEAE0F1E080818F7B808380818F777A
:100FD0008083529853985E9A00C08091090186FDE3
:100FE00002C080E001C080E19091090199230CF4D6
:100FF00080624A9980644B9980685E9800C05E9ACE
:1010000000C09091090196FD81609091090199239A
:101010000CF482604A9984604B9988605E980895C8
:1010200080E0C9DF8823E4F388E090E00197F1F7DE
:1010300080E0C1CF0895CF93C82FF2DF60E08C2FFE
:101040002CDFCF910895CF93C82FEADF61E08C2F7A
:1010500024DFCF910895611103C08058ECCF08952B
:10106000613019F48056E7CF0895623019F4805446
:10107000E2CF08958052DFCF089581E0DCCF08955C
:10108000CF93C82FCDDFCA3099F4803248F090EE6C
:10109000980F903238F08054803230F480E605C0EA
:1010A00080E203C080E401C080E08058C4DF03C058
:1010B00061E08C2FF2DECF910895CF93DF93EC01A6
:1010C0002196FC018081882321F0DADF899181114A
:1010D000FCCFDF91CF910895CF93DF93EC01219660
:1010E000FC018491882331F0CBDFFE0184912196AD
:1010F0008111FACFDF91CF910895CF93C82F549AE1
:10110000559A569AEAE0F1E080818064808380817C
:1011100080688083529A539AE0E4FCE93197F1F7B2
:10112000E0E4FCE93197F1F780E210DFE0EAF0E07B
:101130003197F1F780E20ADF80E808DFE0EAF0E0CB
:101140003197F1F780E002DF80EE00DFE0EAF0E0C7
:101150003197F1F780E0FADE80E1F8DEE0E0F9E1D6
:101160003197F1F780E0F2DE80E6F0DEE0EAF0E0D1
:101170003197F1F784E25FDF89E05DDF80E25BDFDA
:101180008C2F59DFCF9108950F931F93E42FF52FE4
:10119000E431F10514F0E3E1F0E00BE313E04E2F4E
:1011A0000E94061710924E03C80187DF1F910F910E
:1011B00008951F93CF93DF93EB016431710514F011
:1011C000C3E1D0E042E06BE373E00E945F178091DF
:1011D0003B03882341F0ECE3F3E010E01F5F8191D3
:1011E0008111FCCF01C010E0812F90E08C179D078A
:1011F00044F480E345DF1F5F812F90E08C179D074B
:10120000C4F310924E038BE393E057DFDF91CF914D
:101210001F91089587B187B1836087B994B184B174
:1012200090718F76892B806884B987B187B18C6083
:1012300087B983B39D9A87B187B1806387B994B129
:1012400084B190788F76892B806184B987B187B11A
:10125000806C87B9E1E0F1E08081808180648083E7
:1012600016BC23E024BD80E887BD94B5906894BD8A
:1012700088BD94B5906294BD92E095BD1092B20085
:10128000E0EBF0E020838093B3002081206820838E
:101290008093B4008081806280839093B10080E06D
:1012A000089577233CF47195619571099FEF9093B0
:1012B0002F030BC06115710529F410922F036FEFF6
:1012C00073E008C091E090932F03613094E07907B8
:1012D0000CF085C09B01772314F4295F3F4F3595AF
:1012E00027953595279535952795823029F118F45E
:1012F000813039F076C08330D1F1843009F453C0A5
:1013000070C027BD80912F0318163CF488B188B1B6
:101310008C7F816088B980E00895811106C088B112
:1013200088B18C7F88B980E0089588B188B18C7FBE
:10133000826088B980E0089528BD80912F03181637
:101340003CF488B188B1837F846088B980E00895D7
:10135000811106C088B188B1837F88B980E0089583
:1013600088B188B1837F886088B980E00895209330
:10137000B30080912F0318163CF488B188B18F7C9C
:10138000806188B980E00895811106C088B188B174
:101390008F7C88B980E0089588B188B18F7C8062A5
:1013A00088B980E008952093B40080912F03181627
:1013B0003CF488B188B18F73806488B980E0089567
:1013C000811106C088B188B18F7388B980E0089513
:1013D00088B188B18F73806888B980E008958FEFF5
:1013E00008958FEF08958A30C8F4693E93E0790735
:1013F000B8F468517C4F62957295707F7627607F54
:1014000076279FB7F894E82FF0E0EE0FFF1FE15B1F
:10141000FC4F718360839FBF80E008958FEF089534
:101420008FEF089581B18F6081B910923003809160
:1014300030038A3070F48091300364EF71E0D3DFC1
:10144000809130038F5F80933003809130038A3026
:1014500090F31092300382B1807F816082B9109244
:1014600025011092240184E69DE790932901809341
:101470002801E0913003F0E0EE0FFF1FE15BFC4F2D
:101480008081918190932B0180932A018FEF8ABBF9
:1014900086E0809373001092220183E08093200104
:1014A00089E18093210180E008951F920F920FB689
:1014B0000F9211248F9380913003813059F028F0DE
:1014C000823069F0833081F013C082B1807F816007
:1014D00082B90EC082B1807F826082B909C082B1B8
:1014E000807F846082B904C082B1807F886082B9C5
:1014F0008F910F900FBE0F901F9018951F920F9213
:101500000FB60F9211240BB60F928F939F93EF9308
:10151000FF9382B1807F82B9809130038F5F809387
:101520003003809130038A3010F010923003E09144
:101530003003F0E0EE0FFF1FE15BFC4F80819181F3
:1015400090932B0180932A01FF91EF919F918F91AE
:101550000F900BBE0F900FBE0F901F90189510921A
:10156000F1031092F20310926E0310926D03109229
:101570006C0310926B031092640310926303109239
:101580006603109265031092F6031092F503109211
:101590006A03109269031092680310926703109215
:1015A000700310926F0308958F929F92AF92BF9233
:1015B000CF92DF92EF92FF920F931F93CF93DF931F
:1015C0000091F203053008F480C18FEF800F803264
:1015D00008F053C0C02ED12C1C141D040CF077C190
:1015E000E1E7F3E081ED93E07601AF0197012F523F
:1015F0003C4F71917B3078F0EC01DC01A054B109D3
:101600000C910B3040F090961C911B3020F098808C
:101610006AE0691528F001968217930751F759C1BE
:10162000772309F458C1002309F457C1112309F4A1
:1016300056C1992009F455C1C6010197992334F187
:10164000F701EF58FC4FDC01AF56BC4F319760817A
:101650006B3070F08C918B3058F0EF01C05CDF4F35
:1016600098819B3028F0A09688802AE02815B8F051
:101670001197E417F50751F70EC0812C90E080E038
:1016800060E0912C10E000E070E009C0812C90E057
:1016900080E060E004C0812C90E080E060E0A72E54
:1016A000B12CC02ED12CC12FD0E0292D30E070E01C
:1016B000482F50E0E92EF12C082D10E0FB01E41B2F
:1016C000F50B0F2EF4E69F2EF02D9E9EC0019F9EDF
:1016D000900D1124640F751F0E94D916FB01A501FE
:1016E0004C195D09949EC001959E900D1124B50181
:1016F0006C0D7D1D0E94D916E61BF70BA701401B40
:10170000510B949EC001959E900D1124B701600F5E
:10171000711F0E94D9168B01AE01421B530B949E80
:10172000C001959E900D1124BE01620F731F0E948F
:10173000D916C801861B970BBC0120916D0330910F
:101740006E032E0F3F1F30936E0320936D03809125
:101750006B0390916C03860F971F90936C0380939B
:101760006B03223331053CF021E030E03093640319
:10177000209363030EC02F3C3F4F3CF42FEF3FEF0D
:10178000309364032093630304C0109264031092A7
:101790006303823391053CF081E090E0909366030F
:1017A000809365030EC08F3C9F4F3CF48FEF9FEFFB
:1017B000909366038093650304C0109266031092B1
:1017C00065038091630390916403892B09F04EC0F7
:1017D0008091650390916603892B09F047C0CF0182
:1017E0004396879708F07FC0CB014396879708F010
:1017F0007CC0309769F46115710551F48091F5034F
:101800009091F60301969093F6038093F50309C037
:101810008091690390916A03019690936A03809383
:1018200069038091F5039091F6030A970CF45FC069
:101830008091690390916A0302970CF45AC0EF2BD0
:1018400051F4672B09F057C081E090E09093680352
:101850008093670359C0672B09F44FC082E090E082
:10186000909368038093670381E04EC0CF01439655
:10187000879708F044C0CB014396879708F041C092
:10188000EF2B59F4672B49F48091F5039091F603FF
:1018900001969093F6038093F5038091F503909160
:1018A000F6030A9784F11092640310926303109276
:1018B00066031092650310926E0310926D031092EE
:1018C0006C0310926B0380E01FC080E01DC080E0BD
:1018D0001BC080E019C080E017C080E015C080E028
:1018E00013C080E011C080E00FC080E00DC080E038
:1018F0000BC080E009C081E007C081E005C080E046
:1019000003C080E001C080E0DF91CF911F910F9173
:10191000FF90EF90DF90CF90BF90AF909F908F900F
:10192000089580916703909168038130910541F497
:1019300085E090E09093700380936F0381E00895B9
:10194000029741F486E090E09093700380936F03D8
:1019500081E0089580916303909164038F3F2FEF9E
:10196000920771F42091650330916603232BB1F542
:1019700083E090E09093700380936F0381E008957B
:101980008130910579F42091650330916603232B12
:1019900009F054C084E090E09093700380936F034B
:1019A00081E008950097D1F420916503309166039A
:1019B0002130310541F482E090E0909370038093F0
:1019C0006F0381E008952F3F3F4F09F065C081E02C
:1019D00090E09093700380936F0308958F3F2FEFF3
:1019E000920761F58091650390916603019709F074
:1019F00057C020916D0330916E0333231CF4319551
:101A00002195310980916B0390916C0399231CF40B
:101A10009195819591098217930744F483E090E0B2
:101A20009093700380936F0381E0089582E090E0CB
:101A30009093700380936F0381E008958130910546
:101A400059F58091650390916603019609F055C0A0
:101A500020916D0330916E0333231CF43195219551
:101A6000310980916B0390916C0399231CF491953B
:101A7000819591098217930744F484E090E0909354
:101A8000700380936F0381E0089581E090E090936C
:101A9000700380936F0308958F3F2FEF920759F5DE
:101AA0008091650390916603019609F051C02091E1
:101AB0006D0330916E0333231CF431952195310968
:101AC00080916B0390916C0399231CF491958195FF
:101AD00091098217930744F483E090E09093700398
:101AE00080936F0381E0089581E090E0909370030C
:101AF00080936F030895019769F580916503909134
:101B00006603019749F520916D0330916E033323ED
:101B10001CF431952195310980916B0390916C03F0
:101B200099231CF49195819591098217930744F4A8
:101B300084E090E09093700380936F0381E00895B8
:101B400082E090E09093700380936F0381E00895AA
:101B500080E0089580E0089580E0089520E030E07E
:101B600040E0682F89E30E94D61591E0811101C001
:101B700090E0892F0895CF93DF931F92CDB7DEB702
:101B800069839E012F5F3F4F41E0682F89E30E94E8
:101B9000D61591E0811101C090E0892F0F90DF915F
:101BA000CF910895682F89E8E6CF0895682F8BE8D4
:101BB000E2CF0895682F80EADECF0895682F81EA8A
:101BC000DACF0895CF93C92F682F84E8D4DF882314
:101BD00019F06C2F85E8CFDFCF910895CF93C92FEF
:101BE000682F86E8C8DF882319F06C2F87E8C3DFE9
:101BF000CF910895682F89E8BECF0895682F8BE8AC
:101C0000BACF08959B01682F89E3D0D791E0811165
:101C100001C090E0892F08950F931F93CF93DF9316
:101C20001F92CDB7DEB789838B0121E0AE014F5FF4
:101C30005F4F61E089E3E1D7882331F061E0C801BB
:101C40000E94251681E001C080E00F90DF91CF91C6
:101C50001F910F910895CF93DF931F92CDB7DEB7F9
:101C6000BE016F5F7F4F80E8D7DF882311F0898145
:101C700001C08FEF0F90DF91CF910895CF93DF9345
:101C8000C82FD62FE8DF8F3F29F1D170C730B8F4C5
:101C9000DD2351F041E050E09A0102C0220F331FD2
:101CA000CA95E2F7822B12C041E050E09A0102C0CF
:101CB000220F331FCA95E2F72095822307C0C73051
:101CC00029F4DD2311F08FE701C080E0682F80E860
:101CD00052DF01C080E0DF91CF91089561E080E0A4
:101CE000CDCF089560E080E0C9CF0895CF93DF9312
:101CF0001F92CDB7DEB7BE016F5F7F4F8FEA8CDFDB
:101D0000882331F0998181E090FD03C080E001C01B
:101D100081E00F90DF91CF9108950F931F93CF93A0
:101D2000DF931F92CDB7DEB78C01FC0111821082C8
:101D3000BE016F5F7F4F84E96FDF8823B9F089812F
:101D400090E0F80191838083BE016F5F7F4F85E94A
:101D500063DF882359F0298130E0322F2227F801F0
:101D600040815181240F351F318320830F90DF91F3
:101D7000CF911F910F9108950F931F93CF93DF93EE
:101D80001F92CDB7DEB78C01FC0111821082BE011B
:101D90006F5F7F4F86E940DF8823B9F0898190E04B
:101DA000F80191838083BE016F5F7F4F87E934DF45
:101DB000882359F0298130E0322F2227F801408111
:101DC0005181240F351F318320830F90DF91CF91F4
:101DD0001F910F9108950F931F93CF93DF931F923D
:101DE000CDB7DEB78C01FC0111821082BE016F5F9E
:101DF0007F4F88E911DF8823B9F0898190E0F801ED
:101E000091838083BE016F5F7F4F89E905DF88235F
:101E100059F0298130E0322F2227F8014081518189
:101E2000240F351F318320830F90DF91CF911F91B5
:101E30000F9108950F931F93CF93DF931F92CDB708
:101E4000DEB78C01FC0111821082BE016F5F7F4FF3
:101E50008AE9E2DE8823B9F0898190E0F801918374
:101E60008083BE016F5F7F4F8BE9D6DE882359F0F8
:101E7000298130E0322F2227F80140815181240F3F
:101E8000351F318320830F90DF91CF911F910F91E8
:101E9000089560E070E08CE9BFCE0895CF93DF93A2
:101EA0001F92CDB7DEB7BE016F5F7F4F89E8B4DE0A
:101EB000811101C0198289810F90DF91CF9108951E
:101EC000CF93DF931F92CDB7DEB7BE016F5F7F4F19
:101ED0008BE8A2DE811101C0198289810F90DF9108
:101EE000CF910895CF93DF931F92CDB7DEB7BE0198
:101EF0006F5F7F4F8FE890DE882331F08981829574
:101F000086958695837001C08FEF0F90DF91CF91FA
:101F100008951F93CF93DF931F92CDB7DEB7182F8D
:101F2000BE016F5F7F4F8FE877DE882351F01295F7
:101F3000110F110F107C69816F73612B69838FE81A
:101F40001ADE0F90DF91CF911F910895CF93DF9309
:101F50001F92CDB7DEB7BE016F5F7F4F8FE85CDEAB
:101F6000882329F0898186958695837001C08FEF3B
:101F70000F90DF91CF9108951F93CF93DF931F921E
:101F8000CDB7DEB7182FBE016F5F7F4F8FE844DEFD
:101F9000882351F0612F6370660F660F8981837FFC
:101FA000682B69838FE8E7DD0F90DF91CF911F9158
:101FB0000895CF93DF931F92CDB7DEB7BE016F5F59
:101FC0007F4F8FE829DE882319F08981837001C053
:101FD0008FEF0F90DF91CF9108951F93CF93DF93F1
:101FE0001F92CDB7DEB7182FBE016F5F7F4F8FE80E
:101FF00013DE882339F0137069816C7F612B69834C
:102000008FE8B9DD0F90DF91CF911F910895CF93A5
:10201000DF931F92CDB7DEB7BE016F5F7F4F80E9C0
:10202000FBDD882329F0898182958F70837001C040
:102030008FEF0F90DF91CF9108951F93CF93DF9390
:102040001F92CDB7DEB7182FBE016F5F7F4F80E9BB
:10205000E3DD882351F0612F63706295607F898191
:102060008F7C682B698380E986DD0F90DF91CF91AB
:102070001F910895CF93DF931F92CDB7DEB7BE01B6
:102080006F5F7F4F8FE9C8DD882329F0898185FB49
:10209000882780F901C08FEF0F90DF91CF910895CD
:1020A0001F93CF93DF931F92CDB7DEB7182FBE01DA
:1020B0006F5F7F4F8FE9B0DD882359F0612F61702A
:1020C0006295660F607E89818F7D682B69838FE9B9
:1020D00052DD0F90DF91CF911F910895CF93DF9341
:1020E0001F92CDB7DEB7BE016F5F7F4F8FE994DDE2
:1020F000882319F089818F7001C08FEF0F90DF91D5
:10210000CF9108951F93CF93DF931F92CDB7DEB782
:10211000182FBE016F5F7F4F8FE97EDD882339F076
:102120001F706981607F612B69838FE924DD0F90C7
:10213000DF91CF911F910895CF93DF931F92CDB779
:10214000DEB7BE016F5F7F4F80EA66DD811101C09F
:10215000198289810F90DF91CF910895CF93DF93FA
:102160001F92CDB7DEB7BE016F5F7F4F81EA54DDAE
:10217000811101C0198289810F90DF91CF9108955B
:10218000CF93DF931F92CDB7DEB7BE016F5F7F4F56
:1021900083EA42DD882331F08981829586958770B4
:1021A000837001C08FEF0F90DF91CF9108951F933F
:1021B000CF93DF931F92CDB7DEB7182FBE016F5FAD
:1021C0007F4F83EA29DD882359F0612F6370629580
:1021D000660F607E89818F79682B698383EACBDC07
:1021E0000F90DF91CF911F910895CF93DF931F92AE
:1021F000CDB7DEB7BE016F5F7F4F83EA0DDD882369
:1022000031F08981869586958695837001C08FEF20
:102210000F90DF91CF9108951F93CF93DF931F927B
:10222000CDB7DEB7182FBE016F5F7F4F83EAF4DCB6
:10223000882359F0612F6370660F660F660F8981DE
:10224000877E682B698383EA96DC0F90DF91CF91BC
:102250001F910895CF93DF931F92CDB7DEB7BE01D4
:102260006F5F7F4F83EAD8DC882319F089818770FC
:1022700001C08FEF0F90DF91CF9108951F93CF93FF
:10228000DF931F92CDB7DEB7182FBE016F5F7F4F70
:1022900083EAC2DC882339F017706981687F612B7B
:1022A000698383EA68DC0F90DF91CF911F910895D5
:1022B0000F931F93CF93DF931F92CDB7DEB78C019F
:1022C000FC0111821082BE016F5F7F4F84E8A4DCA5
:1022D0008823B9F0898190E0F80191838083BE0161
:1022E0006F5F7F4F85E898DC882359F0298130E0C3
:1022F000322F2227F80140815181240F351F31836D
:1023000020830F90DF91CF911F910F9108950F932C
:102310001F93CF93DF931F92CDB7DEB78C01FC01E3
:1023200011821082BE016F5F7F4F86E875DC8823C3
:10233000B9F0898190E0F80191838083BE016F5FDD
:102340007F4F87E869DC882359F0298130E0322FFC
:102350002227F80140815181240F351F31832083CA
:102360000F90DF91CF911F910F910895FC01108282
:10237000BC0189E851CC0895FC011082BC018BE8B6
:102380004BCC0895CF93DF931F92CDB7DEB7BE013C
:102390006F5F7F4F80E840DC882321F08981829540
:1023A000817001C08FEF0F90DF91CF9108951F933F
:1023B000CF93DF931F92CDB7DEB7182FBE016F5FAB
:1023C0007F4F80E829DC882351F0612F617062958E
:1023D000607F89818F7E682B698380E8CCDB0F90DA
:1023E000DF91CF911F910895CF93C82F81E0F5DD44
:1023F000882389F0CC2329F081E0D9DF811105C041
:102400000AC080E0D4DF882331F068DC882319F02B
:1024100061E081E033DCCF91089580E0C8DF88235C
:1024200019F060E081E02ACC0895CF93DF931F92EA
:10243000CDB7DEB7BE016F5F7F4F80E8EDDB88234D
:1024400029F0898185FB882780F901C08FEF0F90E3
:10245000DF91CF9108951F93CF93DF931F92CDB754
:10246000DEB7182FBE016F5F7F4F80E8D5DB882372
:1024700059F0612F61706295660F607E89818F7D52
:10248000682B698380E877DB0F90DF91CF911F91F4
:102490000895CF93C82F82E06FDD8823A9F080E0F4
:1024A00038DD882389F0CC2329F081E0D4DF811145
:1024B00005C00AC080E0CFDF882331F00FDC88231D
:1024C00019F061E082E0DADBCF91089580E0C3DFAC
:1024D000882319F060E082E0D1CB0895CF93DF9399
:1024E0001F92CDB7DEB7BE016F5F7F4F8BEA94DBE3
:1024F000882321F089818695817001C08FEF0F902C
:10250000DF91CF9108951F93CF93DF931F92CDB7A3
:10251000DEB7182FBE016F5F7F4F8BEA7DDB88230C
:1025200049F0612F6170660F89818D7F682B698307
:102530008BEA21DB0F90DF91CF911F910895CF930C
:10254000DF931F92CDB7DEB710926E0310926D032A
:1025500010926C0310926B03109264031092630349
:1025600010926603109265031092F6031092F50321
:1025700010926A0310926903109268031092670325
:102580001092700310926F03F9D2BE016F5F7F4FFC
:1025900082E942DB882309F4A3C089818B3A19F0D0
:1025A0008C3909F09CC060E087E068DB882309F47F
:1025B00097C06BED81E8DFDA882309F491C066EFFC
:1025C00083E8D9DA882309F48BC067E88EE8D3DA88
:1025D000882309F485C060E08DE9CDDA882309F409
:1025E0007FC060E08EE9C7DA882309F479C060E62D
:1025F0008DE8C1DA882309F473C080E08ADC88237F
:1026000009F46EC082E0B8DC882309F469C081E077
:10261000E4DC882309F464C080E0C4DA882309F488
:102620005FC082E3C3DA882309F45AC08FEF9FEFBB
:10263000C9DA882309F454C080E090E0CFDA882317
:1026400009F44EC061E18CE896DA882309F448C0A9
:1026500061E080E990DA882309F442C060E08FE904
:102660008ADA882309F43CC088E2A4DA882309F4D2
:1026700037C08EE1A3DA882399F160E482EA7BDA3D
:10268000882371F182E093DD882351F180E0C4DD7D
:10269000882331F181E0F2DD882311F160E084EAE2
:1026A0006ADA8823E9F060E085EA65DA8823C1F018
:1026B00060E087EA60DA882399F060E089EA5BDA13
:1026C000882371F069EC86EA56DA882349F060E0E5
:1026D0008AEA51DA882321F080E015DF01C080E02A
:1026E0000F90DF91CF910895CF93DF931F92CDB7D5
:1026F000DEB7BE016F5F7F4F87EE8EDA0F90DF91FE
:10270000CF910895CF93DF931F92CDB7DEB7BE016F
:102710006F5F7F4F85EE80DA0F90DF91CF91089544
:10272000CF93DF931F92CDB7DEB7BE016F5F7F4FB0
:102730008BEA72DA882319F08981817001C08FEFEA
:102740000F90DF91CF9108951F93CF93DF931F9246
:10275000CDB7DEB7182FBE016F5F7F4F8BEA5CDA13
:10276000882331F0698110FB60F969838BEA03DA11
:102770000F90DF91CF911F910895CF93C82F0E94A2
:10278000AF0A6FEF83E8F7D9882341F169E88EE853
:10279000F2D9882319F183E050DC8823F9F0CC23A7
:1027A00029F081E0B0DE811105C018C080E0ABDE09
:1027B0008823A1F081E0C8DF882381F08FDA8823A5
:1027C00069F061E083E05ADA882341F061E082E059
:1027D00055DA882319F061E086E050DACF91089548
:1027E0000E94AF0A80E08FDE882339F080E0ACDF02
:1027F000882319F060E086E041CA0895FF920F93A4
:102800001F93CF93DF931F92CDB7DEB789838B01E0
:10281000F42E242FAE014F5F5F4F61E089E3EDD1CD
:10282000882329F06F2DC80110D290E002C080E00B
:1028300090E00F90DF91CF911F910F91FF9008953D
:102840004F925F926F927F928F929F92AF92BF92C0
:10285000CF92DF92EF92FF920F931F93CF93DF936C
:10286000CDB7DEB7C258D1090FB6F894DEBF0FBEA0
:10287000CDBF19823BDA882309F49AC0ECD9817460
:1028800009F499C08E010E571F4FA02EB12E0F2EA6
:10289000F1EFCF2EF3E0DF2EF02D0F2EF2EFEF2E23
:1028A000F3E0FF2EF02D812C912C2FEF36E781E005
:1028B000215030408040E1F700C000006A2D7B2DA0
:1028C0008FEAAAD9882309F479C0D8018C9180FFB6
:1028D0005BC0BE016F5F7F4F8EEA9ED9882309F4EB
:1028E00070C04981442309F3440F440FBE016E5F59
:1028F0007F4F8CEF83DF8430C0F23C0177241614C5
:102900001704C4F5F6012081D7017C91FE013596AC
:10291000622F882D992D721BA62FB0E09D012F5894
:102920003C4F29019F0123503109D9012C91D2013B
:102930002C939F0122503109D9012C91D2019096FC
:102940002C93A201405C5F4F9F0121503109D901B6
:102950002C91DA012C93208190962C936F5F272F76
:10296000260F0496349686159705B4F2F601608317
:10297000D7012C930E94D40A81110E94910CF60178
:102980001082D7011C9291CFBFEFE6E7F1E0B15082
:10299000E040F040E1F700C000000E94910C00917F
:1029A0006F03109170030E94AF0A802F912F0BC00C
:1029B00080E090E008C080E090E005C08FEF90E0FC
:1029C00002C08FEF90E0CE57DF4F0FB6F894DEBF16
:1029D0000FBECDBFDF91CF911F910F91FF90EF9070
:1029E000DF90CF90BF90AF909F908F907F906F902F
:1029F0005F904F9008952FB7F89410923103109282
:102A00003203109233031092340310923503109264
:102A100095001092940010929D0010929C001092CC
:102A20009B0010929A0010929900109298008FEFDC
:102A300088BB81E08093710080E09AEF90939700CB
:102A4000809396001092920082E08093900089E13A
:102A5000809391002FBF80E008952FB7F894609184
:102A600032037091330380913403909135032FBF6B
:102A700008951F920F920FB60F9211248F939F9378
:102A8000AF93BF9383B3836083BB84B3836084BB02
:102A900081E0809331038091320390913303A091C0
:102AA0003403B09135030496A11DB11D8093320308
:102AB00090933303A0933403B09335038091320392
:102AC00090913303A0913403B091350380910901B3
:102AD0008095806C8093FA0384B38C7F84BBBF9114
:102AE000AF919F918F910F900FBE0F901F901895EF
:102AF000EAE0F1E080818081807C8083EBE0F1E09E
:102B000080818FE380831092F8031092F903109272
:102B1000FA031092F70308952FB7F8949091FA03EF
:102B2000892F8F738093FA032FBF907CB9F08111A6
:102B30000DC09091F80391110FC09091F903992362
:102B400059F09093F7031092F90306C09091F8039F
:102B5000891302C08093F9038093F80381E0909178
:102B6000F703911101C080E00895CF93C091F7035E
:102B70001092F703D1DF8C2FCF91089582E08093DC
:102B8000B8008FEF8093BB0084E08093BC00089571
:102B9000ECEBF0E0808180FDFDCF1092F80288EF31
:102BA0008093F70285EA8093BC0008959091BC0061
:102BB00090FD21C091E09093F60292E0940F9093E3
:102BC000F4021092F502880F8093D4026093D5022C
:102BD000933070F0A22FB32FE6EDF2E04150842F36
:102BE00090E089529D4F2D912193E817F907D9F76D
:102BF000CFDF81E0089580E008959091BC0090FDC2
:102C000020C093E09093F60291E0960F9093F40227
:102C10002093F5022032B8F4880F8093D4029230CA
:102C200068F0A42FB52FE5EDF2E0615070E06A5234
:102C30007D4F8D918193E617F707D9F7A9DF81E0E2
:102C4000089580E008958FEF08952FEF260F2F311C
:102C5000F8F4ECEBF0E0208120FDFDCF3091F5029F
:102C60002091F8022223B1F0361708F4632F66236F
:102C700091F0E5EDF2E0A82FB92F2FEF260F30E00D
:102C80002A523D4F91919D93E217F307D9F703C064
:102C900060E001C060E0862F08951F920F920FB68A
:102CA0000F9211240BB60F922F933F938F939F9304
:102CB000AF93BF93EF93FF938091B90090E0FC0135
:102CC0003897E135F10508F05EC0EE58FF4F84C03B
:102CD00010923603E09136038091F402E81770F405
:102CE00081E08E0F80933603F0E0EC52FD4F80813F
:102CF0008093BB0085E88093BC004CC081E080934A
:102D0000F8028091F602833021F084E98093BC00C0
:102D100041C0E4EDF2E080818160808385EA8093A8
:102D2000BC0038C0E091360381E08E0F80933603FB
:102D30008091BB00F0E0EC52FD4F80832091360380
:102D400030E08091F50290E001972817390724F4CC
:102D500085EC8093BC001EC085E88093BC001AC03F
:102D60008091BB00E0913603F0E0EC52FD4F808390
:102D700081E08093F80284E98093BC000BC085EA6F
:102D80008093BC0007C08091B9008093F70284E86B
:102D90008093BC00FF91EF91BF91AF919F918F9174
:102DA0003F912F910F900BBE0F900FBE0F901F9071
:102DB000189597FB072E16F4009406D077FD08D0DF
:102DC00011D007FC05D03EF4909581959F4F089552
:102DD000709561957F4F0895EE0FFF1F0590F49158
:102DE000E02D1994AA1BBB1B51E107C0AA1FBB1FF2
:102DF000A617B70710F0A61BB70B881F991F5A9587
:102E0000A9F780959095BC01CD010895EF920F939D
:102E10001F93CF93DF93E80147FF02C034E101C065
:102E200034E0E42FFF27E7FDF095F7FF03C0F195AD
:102E3000E195F109E32E022F2E2FAE0159D0CE01DC
:102E4000DF91CF911F910F91EF900895BB274A30EA
:102E500031F4992322F4BDE2909581959F4F30C0C3
:102E6000BB272A3051F4992342F4BDE29095809516
:102E7000709561957F4F8F4F9F4F01C0BB27FA011F
:102E8000A62F6217710581059105330B30FB66F0A3
:102E9000AA27660F771F881F991FAA1FA21710F075
:102EA000A21B63953850A9F7A05DAA3308F0A95D6D
:102EB000A19336F7B111B1931082CA016EC2BB273C
:102EC000FB015527AA27880F991FAA1FA41710F0E6
:102ED000A41B83955051B9F7A05DAA3308F0A95DF2
:102EE000A193009779F7B111B1931192CB0155C21B
:102EF0006F927F929F92AF92BF92CF92DF92EF92AA
:102F0000FF920F931F93CF93DF93CDB7DEB729972F
:102F10000FB6F894DEBF0FBECDBF6A01B22E102FE0
:102F20000C3320F4FF24F394F00E02C04CE3F42E93
:102F30000F2D27E0AE014F5F5F4F57D17981272FCB
:102F40002970213031F0E1FC06C0E0FC06C060E0F1
:102F500005C06DE203C06BE201C060E2AE2DA0715E
:102F600073FF36C0662311F084E001C083E08B1547
:102F700010F4B81A01C0B12CA1110BC0F6018B2DB1
:102F800090E2882319F091938150FBCFCB0CD11C98
:102F9000B12C662331F0F601608396012F5F3F4F1D
:102FA0006901C6010396E2FE05C02EE4F601208306
:102FB00031E404C02EE6F601208331E6318322831A
:102FC000FC012B2D30E22223F1F131932150FBCF74
:102FD00072FF40C0662311F084E001C083E08B15CE
:102FE00010F4B81A01C0B12CA1110BC0F6018B2D41
:102FF00090E2882319F091938150FBCFCB0CD11C28
:10300000B12C662331F0F601608396012F5F3F4FAC
:103010006901C6010396E2FE07C029E4F601208398
:103020002EE4218326E406C029E6F60120832EE65D
:10303000218326E62283FC012B2D30E2222319F086
:1030400031932150FBCFFC01EB0DF11D10828EEF6F
:103050009FEFB7C0B1E0611101C0B0E04B2F50E06D
:103060001816190624F49C012F5F3F4F02C021E07F
:1030700030E0240F351F112329F0412F50E04F5F1E
:103080005F4F02C040E050E0420F531F2B2D30E055
:103090004217530714F4B41A01C0B12C2E2D287115
:1030A00059F4F6012B2D30E2222319F031932150EF
:1030B000FBCFCB0CD11CB12CBB2331F0F6016083CC
:1030C00096012F5F3F4F6901A1110BC0F6012B2D17
:1030D00030E3222319F031932150FBCFCB0CD11CCC
:1030E000B12CF80E0A81372F3071A32E74FF03C064
:1030F000013309F4FA941F142CF42F2D293018F001
:1031000028E001C021E0682F392F97FF02C060E05E
:1031100030E0462F532F612C712C3EE2932EBC01E0
:10312000621B71099B01DC01A41BB50BE1E0F0E01F
:10313000EC0FFD1FAE0FBF1FE12EF12CF194E194B7
:10314000F1084F3FFFEF5F0731F4F6019082B601BF
:103150006F5F7F4F6B01841795074CF0241735077D
:1031600034F4BD01660D771DFB01118101C010E330
:1031700041505109FFEF6F1A7F0AB6016F5F7F4F11
:103180004E155F0524F0F60110836B01DACF481766
:10319000590739F4063320F4053319F4A11001C09E
:1031A00011E3F6011083FB018B2D90E2882319F0C7
:1031B00091938150FBCFFB01EB0DF11D108280E05C
:1031C00090E029960FB6F894DEBF0FBECDBFDF9119
:1031D000CF911F910F91FF90EF90DF90CF90BF9014
:1031E000AF909F907F906F900895283008F027E06F
:1031F0003327DA01990F311D87FD91600096610533
:10320000710539F432602E5F3D9330E32A95E1F782
:1032100008959F3F30F080387105610509F03C5FEB
:103220003C5F3D93913008F08068911DDF93CF9310
:103230001F930F93FF92EF92192F987F9695E92F86
:1032400096959695E90FFF27EB53FC4F9927332767
:10325000EE24FF24A701E70105900894079428F4C1
:10326000360FE71EF81E491F511D660F771F881F76
:10327000991F0694A1F70590079428F4E70EF81E0D
:10328000491F561FC11D770F881F991F661F06947F
:10329000A1F70590079428F4F80E491F561FC71F81
:1032A000D11D880F991F661F771F0694A1F70590FF
:1032B000079420F4490F561FC71FD81F990F661F88
:1032C000771F881F0694A9F784911095177041F015
:1032D000D695C79557954795F794E7941A95C1F7F2
:1032E000EBE6F3E068941590159135916591959111
:1032F00005907FE27395E118F10A430B560BC90B59
:10330000D009C0F7E10CF11E431F561FC91FD01D85
:103310007EF4703311F48A95E6CFE894015030F0D2
:10332000080F0AF40027021708F4202F2395022F14
:103330007A3328F079E37D932A95E9F710C07D93DD
:103340002A9589F60694979567953795179517945A
:10335000E118F10A430B560BC90BD00998F02395DD
:103360007E9173957A3308F070E37C932013B8F75D
:103370007E9170617D9330F0839571E37D9370E36E
:103380002A95E1F71124EF90FF900F911F91CF91B3
:10339000DF91992787FD90950895DC01FC01672F47
:1033A00071917723E1F7329704C07C916D9370831C
:0E33B0006291AE17BF07C8F30895F894FFCFDF
:1033BE009F122B0E3E0E6E0E720EF4110D1249124E
:1033CE006612BD13F013720F890FF5100C11D90F81
:1033DE00ED0FA60FBC0FC010D7105811E20D8711BC
:1033EE00EE0DB611FA0DBC11FE0DC211D71115124C
:1033FE002B126E128312741382138D0EBC0EEB0EF3
:10340E001A0F490F760E2014AF0AD40A910C4E0FE4
:10341E00D20D600FD60D07101D103A1050106E1001
:10342E0082109C10DA0DAE10DE0D2A113E11901393
:10343E00A413AE0DBB0D020E0C0EFE130000000009
:10344E00000000000000000000000000000000006E
:10345E00000000000000000000000000000000005E
:10346E0000000001000301A60200000000000000A1
:10347E00000000000000000000000000000000003E
:10348E00000000000000000000000000000000002E
:10349E00000000000000000000000000000000001E
:0A34AE0000000000000000F800001C
:00000001FF
